S014000045696E646F706472616368742E737265633B
S113000045C0000060C000005EC000005CC000008D
S11300105AC0000058C0000056C0000054C0000080
S113002052C00000E0C000004EC000004CC0000000
S11300304AC0000048C0000046C0000044C00000A0
S113004042C0000040C000003EC000003CC00000B0
S11300503AC0000038C0000036C0000034C00000C0
S113006032C0000030C000002EC000002CC00000D0
S11300702AC0000028C0000026C0000024C00000E0
S113008022C0000020C000001EC0000011241FBEBA
S1130090CFEFD0E1DEBFCDBF11E0A0E0B1E0E0EEF4
S11300A0F7E000E00BBF02C007900D92AA30B10741
S11300B0D9F721E0AAE0B1E001C01D92A539B20749
S11300C0E1F778D28BC39CCF20E030E008C0EFEC9E
S11300D0F7E03197F1F700C000002F5F3F4F28177A
S11300E03907ACF308958AEF83BD8BE085BD87B7EC
S11300F0806887BF089517B887B1806487B987B1CE
S1130100806287B987B1816087B916B886B1806883
S113011086B986B1866086B908958FEF8ABB87BB9E
S113012084BB81BB82B910926100E5DFDCDF789487
S1130130089586B1806486B93699FECF85B190E082
S11301400895E1D283709078992324F401978C6FF9
S11301509F6F01969093920180939101D4D28770FE
S11301609078992324F40197886F9F6F0196909358
S11301709401809393010895CF92DF92EF92FF92BE
S1130180C2D283709078992304F4BDD2877090789A
S1130190992304F46894CC24C1F8D12C6894EE24F7
S11301A0E1F8F12CC0920E01D0920F01E0921001FF
S11301B0F092110181E090E090938F0180938E0181
S11301C0C0DF83E290E0909307018093060190934F
S11301D009018093080181E080939001FF90EF90E2
S11301E0DF90CF9008951F920F920FB60F921124B3
S11301F00BB60F922F933F934F935F936F937F931D
S11302008F939F93AF93BF93EF93FF9380910C01D0
S113021090910D01019690930D0180930C0187B18B
S1130220807E87B980910C0190910D01823E9140AE
S113023059F487B187B97DDF909305018093040158
S113024010920D0110920C0180910C0190910D01FE
S113025069E170E0EAD1892B99F487B1816087B9AB
S113026068DF8936910521F0909309018093080194
S11302708134910529F480919001811101C07CDFC2
S1130280FF91EF91BF91AF919F918F917F916F916A
S11302905F914F913F912F910F900BBE0F900FBE26
S11302A00F901F901895CF92DF92EF92FF926B01FF
S11302B07C01D701A830B10510F581E090E015C0AC
S11302C0FC01EE0FFF1FEE0FFF1FE25FFE4F4081A8
S11302D0518162817381C416D50631F4A617B7071C
S11302E019F480E090E00DC0019620918E013091C8
S11302F08F012817390724F781E090E002C080E0DD
S113030090E0FF90EF90DF90CF9008954F925F922E
S11303106F927F928F929F92AF92BF92CF92DF9211
S1130320EF92FF92CF93DF934B015C01C0900E01DB
S1130330D0900F01E0901001F09011018091910193
S1130340909192018C159D0589F48091930190916F
S113035094018E159F0551F480918E0190918F0127
S1130360019690938F0180938E01EBDE8FE190E0F4
S11303701BC09C0121503109880F991F880F991FB8
S1130380FC01E25FFE4FD901AA0FBB1FAA0FBB1FDE
S1130390A25FBE4F8D919D910D90BC91A02D808345
S11303A09183A283B383C9011816190614F3E401D7
S11303B0CC0DDD1D2E01EA0CFB1C3701C301B2017B
S11303C072DF892B19F4109290012EC02496C37009
S11303D0D078DD2324F42197CC6FDF6F21962E0192
S11303E088E0E80EF11C87E0E82280E8F822FF208C
S11303F054F481E0E81AF10888EFE82AFF24FA941B
S11304008FEFE81AF80A3701C301B2014CDF892BD8
S113041049F040920E0150920F01609210017092C7
S1130420110102C010929001DF91CF91FF90EF90E3
S1130430DF90CF90BF90AF909F908F907F906F9000
S11304405F904F900895CF93DF93CDB7DEB7609759
S11304500FB6F894DEBF0FBECDBF80910801909116
S113046009018431910561F08332910549F08730A7
S1130470910531F0009721F08091060190910701D8
S11304801A82198221E030E03C832B833E832D8342
S113049018861F821A8619862FEF3FEF3C872B8719
S11304A03E872D87188A1F868730910569F01CF4D2
S11304B0009769F011C08431910561F08332910590
S11304C059F4E1E0F0E008C0E2E0F0E005C0E3E068
S11304D0F0E002C0E0E0F0E09093070180930601B1
S11304E0EE0FFF1FEE0FFF1F81E090E08C0F9D1FAA
S11304F0E80FF91F608171818281938107DF609623
S11305000FB6F894DEBF0FBECDBFDF91CF91089533
S113051021E030E002C0220F331F8A95E2F7862FD4
S1130520972F8130910571F01CF4892B39F00895CF
S11305308230910559F0039769F008958BB3282B05
S11305402BBB089588B3282B28BB089585B3282B8B
S113055025BB089582B3282B22BB0895CF93DF9344
S11305601BBA18BA15BA12BA60919101709192012E
S11305708091930190919401CBDFC0E0D0E00DC055
S1130580FE01EE0FFF1FEE0FFF1FE25FFE4F6081C3
S1130590718182819381BCDF219680918E0190913B
S11305A08F018C179D0764F780910A0183B9DF914D
S11305B0CF910895B2DDE0DD19C045DFCFDF809132
S11305C00A0190910B01019690930B0180930A010B
S11305D080910401909105019C01220F331F220F89
S11305E0331F820F931F8A569F4F6EDD80919001B7
S11305F08111E3CF80910401909105019C01220FA8
S1130600331F220F331F820F931F2BB320952BBB55
S113061028B3209528BB25B3209525BB22B320956C
S113062022BB8A569F4F50DDE1CF97FB072E16F46D
S1130630009406D077FD08D00BD007FC05D03EF41B
S1130640909581959F4F0895709561957F4F08957A
S1130650AA1BBB1B51E107C0AA1FBB1FA617B707E4
S113066010F0A61BB70B881F991F5A95A9F7809500
S11306709095BC01CD0108958F929F92AF92BF9245
S1130680CF92DF92EF92FF92CF93DF93EC016881D8
S113069079818A819B81611571058105910521F418
S11306A064E279ED8BE597E02DE133EF41E050E032
S11306B038D049015A019B01AC01A7EAB1E44DD0FD
S11306C06B017C01ACEEB4EFA501940152D0DC01C6
S11306D0CB018C0D9D1DAE1DBF1DB7FF03C001973F
S11306E0A109B04888839983AA83BB839F77DF914C
S11306F0CF91FF90EF90DF90CF90BF90AF909F90FD
S11307008F900895B9CF80E091E0B6CFA0E0B0E03B
S11307108093000190930101A0930201B09303011F
S11307200895052E97FB16F400940FD057FD05D0BD
S113073024D007FC02D046F408C05095409530956B
S113074021953F4F4F4F5F4F089590958095709539
S113075061957F4F8F4F9F4F089531D0A59F900D86
S1130760B49F900DA49F800D911D11240895B7FF8F
S1130770F4CFF3DF821B930B0895A1E21A2EAA1B78
S1130780BB1BFD010DC0AA1FBB1FEE1FFF1FA2173D
S1130790B307E407F50720F0A21BB30BE40BF50B3A
S11307A0661F771F881F991F1A9469F760957095C3
S11307B0809590959B01AC01BD01CF010895A29F46
S11307C0B001B39FC001A39F700D811D1124911D21
S11307D0B29F700D811D1124911D0895F894FFCFCF
S10D07E00100000080002300230044
S9030000FC
